{
  "_format": "hh3-artifact-1",
  "contractName": "GreenLoanContract",
  "sourceName": "contracts/GreenLoanContract.sol",
  "abi": [
    {
      "inputs": [],
      "stateMutability": "nonpayable",
      "type": "constructor"
    },
    {
      "anonymous": false,
      "inputs": [
        {
          "indexed": true,
          "internalType": "address",
          "name": "admin",
          "type": "address"
        },
        {
          "indexed": false,
          "internalType": "uint256",
          "name": "amount",
          "type": "uint256"
        }
      ],
      "name": "AdminDeposited",
      "type": "event"
    },
    {
      "anonymous": false,
      "inputs": [
        {
          "indexed": true,
          "internalType": "address",
          "name": "enterprise",
          "type": "address"
        },
        {
          "indexed": false,
          "internalType": "string",
          "name": "name",
          "type": "string"
        }
      ],
      "name": "EnterpriseRegistered",
      "type": "event"
    },
    {
      "anonymous": false,
      "inputs": [
        {
          "indexed": true,
          "internalType": "address",
          "name": "enterprise",
          "type": "address"
        }
      ],
      "name": "EnterpriseVerified",
      "type": "event"
    },
    {
      "anonymous": false,
      "inputs": [
        {
          "indexed": true,
          "internalType": "address",
          "name": "admin",
          "type": "address"
        },
        {
          "indexed": true,
          "internalType": "address",
          "name": "enterprise",
          "type": "address"
        },
        {
          "indexed": false,
          "internalType": "uint256",
          "name": "amount",
          "type": "uint256"
        }
      ],
      "name": "FundTransferred",
      "type": "event"
    },
    {
      "anonymous": false,
      "inputs": [
        {
          "indexed": true,
          "internalType": "address",
          "name": "enterprise",
          "type": "address"
        },
        {
          "indexed": false,
          "internalType": "uint256",
          "name": "dataId",
          "type": "uint256"
        }
      ],
      "name": "GreenDataUploaded",
      "type": "event"
    },
    {
      "anonymous": false,
      "inputs": [
        {
          "indexed": true,
          "internalType": "address",
          "name": "enterprise",
          "type": "address"
        },
        {
          "indexed": false,
          "internalType": "uint256",
          "name": "dataId",
          "type": "uint256"
        },
        {
          "indexed": false,
          "internalType": "uint256",
          "name": "pointsEarned",
          "type": "uint256"
        }
      ],
      "name": "GreenDataVerified",
      "type": "event"
    },
    {
      "anonymous": false,
      "inputs": [
        {
          "indexed": true,
          "internalType": "address",
          "name": "enterprise",
          "type": "address"
        },
        {
          "indexed": false,
          "internalType": "uint256",
          "name": "loanId",
          "type": "uint256"
        },
        {
          "indexed": false,
          "internalType": "bool",
          "name": "isGreenLoan",
          "type": "bool"
        }
      ],
      "name": "LoanApplied",
      "type": "event"
    },
    {
      "anonymous": false,
      "inputs": [
        {
          "indexed": true,
          "internalType": "address",
          "name": "enterprise",
          "type": "address"
        },
        {
          "indexed": false,
          "internalType": "uint256",
          "name": "loanId",
          "type": "uint256"
        },
        {
          "indexed": false,
          "internalType": "uint256",
          "name": "amount",
          "type": "uint256"
        },
        {
          "indexed": false,
          "internalType": "uint256",
          "name": "rate",
          "type": "uint256"
        }
      ],
      "name": "LoanApproved",
      "type": "event"
    },
    {
      "anonymous": false,
      "inputs": [
        {
          "indexed": false,
          "internalType": "string",
          "name": "parameterType",
          "type": "string"
        },
        {
          "indexed": false,
          "internalType": "uint256",
          "name": "newValue",
          "type": "uint256"
        },
        {
          "indexed": false,
          "internalType": "address",
          "name": "updatedBy",
          "type": "address"
        }
      ],
      "name": "ParametersUpdated",
      "type": "event"
    },
    {
      "anonymous": false,
      "inputs": [
        {
          "indexed": true,
          "internalType": "address",
          "name": "enterprise",
          "type": "address"
        },
        {
          "indexed": false,
          "internalType": "uint256",
          "name": "amount",
          "type": "uint256"
        },
        {
          "indexed": false,
          "internalType": "string",
          "name": "reason",
          "type": "string"
        }
      ],
      "name": "PointsDeducted",
      "type": "event"
    },
    {
      "stateMutability": "payable",
      "type": "fallback"
    },
    {
      "inputs": [],
      "name": "ADMIN_ROLE",
      "outputs": [
        {
          "internalType": "bytes32",
          "name": "",
          "type": "bytes32"
        }
      ],
      "stateMutability": "view",
      "type": "function"
    },
    {
      "inputs": [],
      "name": "ENTERPRISE_ROLE",
      "outputs": [
        {
          "internalType": "bytes32",
          "name": "",
          "type": "bytes32"
        }
      ],
      "stateMutability": "view",
      "type": "function"
    },
    {
      "inputs": [],
      "name": "admin",
      "outputs": [
        {
          "internalType": "address",
          "name": "",
          "type": "address"
        }
      ],
      "stateMutability": "view",
      "type": "function"
    },
    {
      "inputs": [],
      "name": "adminDeposit",
      "outputs": [],
      "stateMutability": "payable",
      "type": "function"
    },
    {
      "inputs": [
        {
          "internalType": "bool",
          "name": "_isGreenLoan",
          "type": "bool"
        }
      ],
      "name": "applyForLoan",
      "outputs": [
        {
          "internalType": "uint256",
          "name": "",
          "type": "uint256"
        }
      ],
      "stateMutability": "nonpayable",
      "type": "function"
    },
    {
      "inputs": [],
      "name": "canApplyGreenLoan",
      "outputs": [
        {
          "internalType": "bool",
          "name": "",
          "type": "bool"
        }
      ],
      "stateMutability": "view",
      "type": "function"
    },
    {
      "inputs": [
        {
          "internalType": "address",
          "name": "_enterprise",
          "type": "address"
        }
      ],
      "name": "canApplyGreenLoanByAddress",
      "outputs": [
        {
          "internalType": "bool",
          "name": "",
          "type": "bool"
        }
      ],
      "stateMutability": "view",
      "type": "function"
    },
    {
      "inputs": [],
      "name": "dataValidPeriod",
      "outputs": [
        {
          "internalType": "uint256",
          "name": "",
          "type": "uint256"
        }
      ],
      "stateMutability": "view",
      "type": "function"
    },
    {
      "inputs": [
        {
          "internalType": "address",
          "name": "",
          "type": "address"
        },
        {
          "internalType": "uint256",
          "name": "",
          "type": "uint256"
        }
      ],
      "name": "enterpriseData",
      "outputs": [
        {
          "internalType": "uint256",
          "name": "baseline",
          "type": "uint256"
        },
        {
          "internalType": "uint256",
          "name": "actualData",
          "type": "uint256"
        },
        {
          "internalType": "string",
          "name": "dataType",
          "type": "string"
        },
        {
          "internalType": "uint256",
          "name": "timestamp",
          "type": "uint256"
        },
        {
          "internalType": "bool",
          "name": "isValid",
          "type": "bool"
        },
        {
          "internalType": "uint256",
          "name": "pointsEarned",
          "type": "uint256"
        }
      ],
      "stateMutability": "view",
      "type": "function"
    },
    {
      "inputs": [
        {
          "internalType": "address",
          "name": "",
          "type": "address"
        },
        {
          "internalType": "uint256",
          "name": "",
          "type": "uint256"
        }
      ],
      "name": "enterpriseLoans",
      "outputs": [
        {
          "internalType": "uint256",
          "name": "id",
          "type": "uint256"
        },
        {
          "internalType": "address",
          "name": "enterprise",
          "type": "address"
        },
        {
          "internalType": "bool",
          "name": "isGreenLoan",
          "type": "bool"
        },
        {
          "internalType": "uint256",
          "name": "rate",
          "type": "uint256"
        },
        {
          "internalType": "uint256",
          "name": "amount",
          "type": "uint256"
        },
        {
          "internalType": "uint256",
          "name": "timestamp",
          "type": "uint256"
        },
        {
          "internalType": "string",
          "name": "status",
          "type": "string"
        }
      ],
      "stateMutability": "view",
      "type": "function"
    },
    {
      "inputs": [
        {
          "internalType": "address",
          "name": "",
          "type": "address"
        }
      ],
      "name": "enterprises",
      "outputs": [
        {
          "internalType": "string",
          "name": "name",
          "type": "string"
        },
        {
          "internalType": "string",
          "name": "socialCreditCodeHash",
          "type": "string"
        },
        {
          "internalType": "bool",
          "name": "isVerified",
          "type": "bool"
        },
        {
          "internalType": "uint256",
          "name": "totalPoints",
          "type": "uint256"
        },
        {
          "internalType": "uint256",
          "name": "lastDataUploadTime",
          "type": "uint256"
        }
      ],
      "stateMutability": "view",
      "type": "function"
    },
    {
      "inputs": [],
      "name": "fixedLoanAmount",
      "outputs": [
        {
          "internalType": "uint256",
          "name": "",
          "type": "uint256"
        }
      ],
      "stateMutability": "view",
      "type": "function"
    },
    {
      "inputs": [
        {
          "internalType": "uint256",
          "name": "_dataId",
          "type": "uint256"
        }
      ],
      "name": "getEnterpriseData",
      "outputs": [
        {
          "internalType": "uint256",
          "name": "baseline",
          "type": "uint256"
        },
        {
          "internalType": "uint256",
          "name": "actualData",
          "type": "uint256"
        },
        {
          "internalType": "string",
          "name": "dataType",
          "type": "string"
        },
        {
          "internalType": "uint256",
          "name": "timestamp",
          "type": "uint256"
        },
        {
          "internalType": "bool",
          "name": "isValid",
          "type": "bool"
        },
        {
          "internalType": "uint256",
          "name": "pointsEarned",
          "type": "uint256"
        }
      ],
      "stateMutability": "view",
      "type": "function"
    },
    {
      "inputs": [
        {
          "internalType": "address",
          "name": "_enterprise",
          "type": "address"
        },
        {
          "internalType": "uint256",
          "name": "_dataId",
          "type": "uint256"
        }
      ],
      "name": "getEnterpriseDataByAddress",
      "outputs": [
        {
          "internalType": "uint256",
          "name": "baseline",
          "type": "uint256"
        },
        {
          "internalType": "uint256",
          "name": "actualData",
          "type": "uint256"
        },
        {
          "internalType": "string",
          "name": "dataType",
          "type": "string"
        },
        {
          "internalType": "uint256",
          "name": "timestamp",
          "type": "uint256"
        },
        {
          "internalType": "bool",
          "name": "isValid",
          "type": "bool"
        },
        {
          "internalType": "uint256",
          "name": "pointsEarned",
          "type": "uint256"
        }
      ],
      "stateMutability": "view",
      "type": "function"
    },
    {
      "inputs": [],
      "name": "getEnterpriseDataCount",
      "outputs": [
        {
          "internalType": "uint256",
          "name": "",
          "type": "uint256"
        }
      ],
      "stateMutability": "view",
      "type": "function"
    },
    {
      "inputs": [
        {
          "internalType": "address",
          "name": "_enterprise",
          "type": "address"
        }
      ],
      "name": "getEnterpriseDataCountByAddress",
      "outputs": [
        {
          "internalType": "uint256",
          "name": "",
          "type": "uint256"
        }
      ],
      "stateMutability": "view",
      "type": "function"
    },
    {
      "inputs": [],
      "name": "getEnterpriseInfo",
      "outputs": [
        {
          "internalType": "string",
          "name": "name",
          "type": "string"
        },
        {
          "internalType": "string",
          "name": "socialCreditCodeHash",
          "type": "string"
        },
        {
          "internalType": "bool",
          "name": "isVerified",
          "type": "bool"
        },
        {
          "internalType": "uint256",
          "name": "totalPoints",
          "type": "uint256"
        }
      ],
      "stateMutability": "view",
      "type": "function"
    },
    {
      "inputs": [
        {
          "internalType": "address",
          "name": "_enterprise",
          "type": "address"
        }
      ],
      "name": "getEnterpriseInfoByAddress",
      "outputs": [
        {
          "internalType": "string",
          "name": "name",
          "type": "string"
        },
        {
          "internalType": "string",
          "name": "socialCreditCodeHash",
          "type": "string"
        },
        {
          "internalType": "bool",
          "name": "isVerified",
          "type": "bool"
        },
        {
          "internalType": "uint256",
          "name": "totalPoints",
          "type": "uint256"
        }
      ],
      "stateMutability": "view",
      "type": "function"
    },
    {
      "inputs": [
        {
          "internalType": "uint256",
          "name": "_loanId",
          "type": "uint256"
        }
      ],
      "name": "getEnterpriseLoan",
      "outputs": [
        {
          "internalType": "uint256",
          "name": "id",
          "type": "uint256"
        },
        {
          "internalType": "bool",
          "name": "isGreenLoan",
          "type": "bool"
        },
        {
          "internalType": "uint256",
          "name": "rate",
          "type": "uint256"
        },
        {
          "internalType": "uint256",
          "name": "amount",
          "type": "uint256"
        },
        {
          "internalType": "uint256",
          "name": "timestamp",
          "type": "uint256"
        },
        {
          "internalType": "string",
          "name": "status",
          "type": "string"
        }
      ],
      "stateMutability": "view",
      "type": "function"
    },
    {
      "inputs": [
        {
          "internalType": "address",
          "name": "_enterprise",
          "type": "address"
        },
        {
          "internalType": "uint256",
          "name": "_loanId",
          "type": "uint256"
        }
      ],
      "name": "getEnterpriseLoanByAddress",
      "outputs": [
        {
          "internalType": "uint256",
          "name": "id",
          "type": "uint256"
        },
        {
          "internalType": "bool",
          "name": "isGreenLoan",
          "type": "bool"
        },
        {
          "internalType": "uint256",
          "name": "rate",
          "type": "uint256"
        },
        {
          "internalType": "uint256",
          "name": "amount",
          "type": "uint256"
        },
        {
          "internalType": "uint256",
          "name": "timestamp",
          "type": "uint256"
        },
        {
          "internalType": "string",
          "name": "status",
          "type": "string"
        }
      ],
      "stateMutability": "view",
      "type": "function"
    },
    {
      "inputs": [],
      "name": "getEnterpriseLoanCount",
      "outputs": [
        {
          "internalType": "uint256",
          "name": "",
          "type": "uint256"
        }
      ],
      "stateMutability": "view",
      "type": "function"
    },
    {
      "inputs": [
        {
          "internalType": "address",
          "name": "_enterprise",
          "type": "address"
        }
      ],
      "name": "getEnterpriseLoanCountByAddress",
      "outputs": [
        {
          "internalType": "uint256",
          "name": "",
          "type": "uint256"
        }
      ],
      "stateMutability": "view",
      "type": "function"
    },
    {
      "inputs": [],
      "name": "getEnterprisePoints",
      "outputs": [
        {
          "internalType": "uint256",
          "name": "",
          "type": "uint256"
        }
      ],
      "stateMutability": "view",
      "type": "function"
    },
    {
      "inputs": [
        {
          "internalType": "address",
          "name": "_enterprise",
          "type": "address"
        }
      ],
      "name": "getEnterprisePointsByAddress",
      "outputs": [
        {
          "internalType": "uint256",
          "name": "",
          "type": "uint256"
        }
      ],
      "stateMutability": "view",
      "type": "function"
    },
    {
      "inputs": [],
      "name": "getLoanTypesInfo",
      "outputs": [
        {
          "internalType": "uint256",
          "name": "normalRate",
          "type": "uint256"
        },
        {
          "internalType": "uint256",
          "name": "greenRate",
          "type": "uint256"
        },
        {
          "internalType": "uint256",
          "name": "minGreenPoints",
          "type": "uint256"
        },
        {
          "internalType": "uint256",
          "name": "loanAmount",
          "type": "uint256"
        },
        {
          "internalType": "bool",
          "name": "eligibleForGreen",
          "type": "bool"
        }
      ],
      "stateMutability": "view",
      "type": "function"
    },
    {
      "inputs": [],
      "name": "getRegisteredEnterprises",
      "outputs": [
        {
          "internalType": "address[]",
          "name": "",
          "type": "address[]"
        }
      ],
      "stateMutability": "view",
      "type": "function"
    },
    {
      "inputs": [],
      "name": "getRegisteredEnterprisesCount",
      "outputs": [
        {
          "internalType": "uint256",
          "name": "",
          "type": "uint256"
        }
      ],
      "stateMutability": "view",
      "type": "function"
    },
    {
      "inputs": [],
      "name": "greenLoanRate",
      "outputs": [
        {
          "internalType": "uint256",
          "name": "",
          "type": "uint256"
        }
      ],
      "stateMutability": "view",
      "type": "function"
    },
    {
      "inputs": [],
      "name": "greenThreshold",
      "outputs": [
        {
          "internalType": "uint256",
          "name": "",
          "type": "uint256"
        }
      ],
      "stateMutability": "view",
      "type": "function"
    },
    {
      "inputs": [],
      "name": "loanIdCounter",
      "outputs": [
        {
          "internalType": "uint256",
          "name": "",
          "type": "uint256"
        }
      ],
      "stateMutability": "view",
      "type": "function"
    },
    {
      "inputs": [],
      "name": "minPointsForGreenLoan",
      "outputs": [
        {
          "internalType": "uint256",
          "name": "",
          "type": "uint256"
        }
      ],
      "stateMutability": "view",
      "type": "function"
    },
    {
      "inputs": [],
      "name": "normalLoanRate",
      "outputs": [
        {
          "internalType": "uint256",
          "name": "",
          "type": "uint256"
        }
      ],
      "stateMutability": "view",
      "type": "function"
    },
    {
      "inputs": [
        {
          "internalType": "string",
          "name": "_name",
          "type": "string"
        },
        {
          "internalType": "string",
          "name": "_socialCreditCodeHash",
          "type": "string"
        }
      ],
      "name": "registerEnterprise",
      "outputs": [],
      "stateMutability": "nonpayable",
      "type": "function"
    },
    {
      "inputs": [
        {
          "internalType": "uint256",
          "name": "",
          "type": "uint256"
        }
      ],
      "name": "registeredEnterprises",
      "outputs": [
        {
          "internalType": "address",
          "name": "",
          "type": "address"
        }
      ],
      "stateMutability": "view",
      "type": "function"
    },
    {
      "inputs": [
        {
          "internalType": "uint256",
          "name": "_amount",
          "type": "uint256"
        },
        {
          "internalType": "uint256",
          "name": "_validPeriod",
          "type": "uint256"
        }
      ],
      "name": "setLoanParameters",
      "outputs": [],
      "stateMutability": "nonpayable",
      "type": "function"
    },
    {
      "inputs": [
        {
          "internalType": "uint256",
          "name": "_normalRate",
          "type": "uint256"
        },
        {
          "internalType": "uint256",
          "name": "_greenRate",
          "type": "uint256"
        }
      ],
      "name": "setLoanRates",
      "outputs": [],
      "stateMutability": "nonpayable",
      "type": "function"
    },
    {
      "inputs": [
        {
          "internalType": "uint256",
          "name": "_threshold",
          "type": "uint256"
        },
        {
          "internalType": "uint256",
          "name": "_minPoints",
          "type": "uint256"
        }
      ],
      "name": "setPointRules",
      "outputs": [],
      "stateMutability": "nonpayable",
      "type": "function"
    },
    {
      "inputs": [
        {
          "internalType": "address payable",
          "name": "_enterprise",
          "type": "address"
        }
      ],
      "name": "transferFundToEnterprise",
      "outputs": [],
      "stateMutability": "nonpayable",
      "type": "function"
    },
    {
      "inputs": [
        {
          "internalType": "uint256",
          "name": "_baseline",
          "type": "uint256"
        },
        {
          "internalType": "uint256",
          "name": "_actualData",
          "type": "uint256"
        },
        {
          "internalType": "string",
          "name": "_dataType",
          "type": "string"
        }
      ],
      "name": "uploadGreenData",
      "outputs": [],
      "stateMutability": "nonpayable",
      "type": "function"
    },
    {
      "inputs": [
        {
          "internalType": "address",
          "name": "_enterprise",
          "type": "address"
        }
      ],
      "name": "verifyEnterprise",
      "outputs": [],
      "stateMutability": "nonpayable",
      "type": "function"
    },
    {
      "inputs": [
        {
          "internalType": "address",
          "name": "_enterprise",
          "type": "address"
        },
        {
          "internalType": "uint256",
          "name": "_dataId",
          "type": "uint256"
        }
      ],
      "name": "verifyGreenData",
      "outputs": [],
      "stateMutability": "nonpayable",
      "type": "function"
    },
    {
      "stateMutability": "payable",
      "type": "receive"
    }
  ],
  "bytecode": "0x6080604052348015600e575f5ffd5b505f80546001600160a01b031916331790556101c26001556101ae600255620f4240600355600f60045560646005556276a700600655613244806100515f395ff3fe608060405260043610610230575f3560e01c806375b238fc1161012c578063b371e916116100af578063cf1a92c911610076578063cf1a92c9146106a2578063df88eae8146106d4578063e9ab574e1461070b578063ebf9c9fc1461072c578063ec4fd8491461074b578063f851a4401461076a57005b8063b371e9161461060d578063c0be05f21461062c578063c2abb2801461064b578063c95ab92314610660578063ca79883d1461067f57005b8063941931c1116100f3578063941931c11461057c5780639d939d161461059b5780639e7174ee146105b0578063a77526d5146105cf578063aff8829b146105ee57005b806375b238fc146104c657806380ceb8bf146104f957806387ee509b146105185780638f1a70da14610537578063902e11b61461054c57005b80634aebd551116101b457806366aa9aff1161017b57806366aa9aff1461043757806368dd17a51461043f5780636b3ed4a9146104725780636f8c6e9c146104915780637530f58e146104a657005b80634aebd551146103bc5780634afdb9b3146103db5780634bd60cdc146103f05780635a35d2d8146104045780635ff617351461041857005b806327e0b896116101f857806327e0b8961461031157806328befdba146103265780632ab6e772146103645780632d5ba2b7146103885780633ad2870b1461039d57005b80630aecbc2e146102325780630d9169ab146102615780630da1116c146102905780630db4debc146102c157806313e69e4b146102f2575b005b34801561023d575f5ffd5b50335f908152600960205260409020545b6040519081526020015b60405180910390f35b34801561026c575f5ffd5b5061028061027b366004612baf565b610788565b6040519015158152602001610258565b34801561029b575f5ffd5b506102af6102aa366004612bd1565b610813565b60405161025896959493929190612c16565b3480156102cc575f5ffd5b506102e06102db366004612c54565b6109be565b60405161025896959493929190612c7e565b3480156102fd575f5ffd5b506102e061030c366004612c54565b610a9c565b34801561031c575f5ffd5b5061024e60045481565b348015610331575f5ffd5b5061033a610c47565b6040805195865260208601949094529284019190915260608301521515608082015260a001610258565b34801561036f575f5ffd5b50610378610cb1565b6040516102589493929190612cba565b348015610393575f5ffd5b5061024e60035481565b3480156103a8575f5ffd5b5061024e6103b7366004612baf565b610e4f565b3480156103c7575f5ffd5b506102af6103d6366004612c54565b610e97565b3480156103e6575f5ffd5b5061024e60065481565b3480156103fb575f5ffd5b50600b5461024e565b34801561040f575f5ffd5b5061028061107f565b348015610423575f5ffd5b50610230610432366004612baf565b6110c6565b610230611425565b34801561044a575f5ffd5b5061024e7f920994fc3bfe282f3f20cdccf1b7c5e46c63d963e822d98efff90abd41c12e2181565b34801561047d575f5ffd5b5061024e61048c366004612cf2565b6114e3565b34801561049c575f5ffd5b5061024e60015481565b3480156104b1575f5ffd5b50335f9081526008602052604090205461024e565b3480156104d1575f5ffd5b5061024e7fa49807205ce4d355092ef5a8a18f56e8913cf4a201fbe287825b095693c2177581565b348015610504575f5ffd5b5061024e610513366004612baf565b611789565b348015610523575f5ffd5b5061024e610532366004612baf565b6117ce565b348015610542575f5ffd5b5061024e60025481565b348015610557575f5ffd5b5061056b610566366004612baf565b611813565b604051610258959493929190612d11565b348015610587575f5ffd5b50610230610596366004612c54565b611952565b3480156105a6575f5ffd5b5061024e600a5481565b3480156105bb575f5ffd5b506102e06105ca366004612bd1565b611c0c565b3480156105da575f5ffd5b506102306105e9366004612d98565b611d7a565b3480156105f9575f5ffd5b50610230610608366004612de7565b611ffd565b348015610618575f5ffd5b50610230610627366004612e3b565b61226e565b348015610637575f5ffd5b50610230610646366004612baf565b61235d565b348015610656575f5ffd5b5061024e60055481565b34801561066b575f5ffd5b5061023061067a366004612e3b565b6124b0565b34801561068a575f5ffd5b50335f9081526007602052604090206003015461024e565b3480156106ad575f5ffd5b506106c16106bc366004612c54565b6125f7565b6040516102589796959493929190612e5b565b3480156106df575f5ffd5b506106f36106ee366004612bd1565b6126e7565b6040516001600160a01b039091168152602001610258565b348015610716575f5ffd5b5061071f61270f565b6040516102589190612ea8565b348015610737575f5ffd5b50610378610746366004612baf565b612799565b348015610756575f5ffd5b50610230610765366004612e3b565b612956565b348015610775575f5ffd5b505f546106f3906001600160a01b031681565b5f80546001600160a01b031633146107bb5760405162461bcd60e51b81526004016107b290612ef3565b60405180910390fd5b6005546001600160a01b0383165f908152600760205260409020600301541080159061080d57506006546001600160a01b0383165f9081526007602052604090206004015461080a9042612f34565b11155b92915050565b335f908152600960205260408120548190819081908190606090871061086d5760405162461bcd60e51b815260206004820152600f60248201526e125b9d985b1a59081b1bd85b881251608a1b60448201526064016107b2565b335f90815260096020526040812080548990811061088d5761088d612f47565b5f9182526020918290206040805160e0810182526006939093029091018054835260018101546001600160a01b03811694840194909452600160a01b90930460ff161515908201526002820154606082015260038201546080820152600482015460a082015260058201805491929160c08401919061090b90612f5b565b80601f016020809104026020016040519081016040528092919081815260200182805461093790612f5b565b80156109825780601f1061095957610100808354040283529160200191610982565b820191905f5260205f20905b81548152906001019060200180831161096557829003601f168201915b505050919092525050815160408301516060840151608085015160a086015160c090960151939e929d50909b5099509297509550909350505050565b6008602052815f5260405f2081815481106109d7575f80fd5b905f5260205f2090600602015f9150915050805f015490806001015490806002018054610a0390612f5b565b80601f0160208091040260200160405190810160405280929190818152602001828054610a2f90612f5b565b8015610a7a5780601f10610a5157610100808354040283529160200191610a7a565b820191905f5260205f20905b815481529060010190602001808311610a5d57829003601f168201915b50505050600383015460048401546005909401549293909260ff909116915086565b5f805481906060908290819081906001600160a01b03163314610ad15760405162461bcd60e51b81526004016107b290612ef3565b6001600160a01b0388165f908152600860205260409020548710610b075760405162461bcd60e51b81526004016107b290612f93565b6001600160a01b0388165f908152600860205260408120805489908110610b3057610b30612f47565b905f5260205f2090600602016040518060c00160405290815f820154815260200160018201548152602001600282018054610b6a90612f5b565b80601f0160208091040260200160405190810160405280929190818152602001828054610b9690612f5b565b8015610be15780601f10610bb857610100808354040283529160200191610be1565b820191905f5260205f20905b815481529060010190602001808311610bc457829003601f168201915b50505091835250506003820154602080830191909152600483015460ff1615156040808401919091526005909301546060928301528351908401519284015191840151608085015160a090950151919e939d50919b509099509197509095509350505050565b600554335f9081526007602052604081206003015490918291829182918291829110801590610c935750600654335f90815260076020526040902060040154610c909042612f34565b11155b600154600254600554600354929a9199509750909550909350915050565b6060805f5f5f60075f336001600160a01b03166001600160a01b031681526020019081526020015f206040518060a00160405290815f82018054610cf490612f5b565b80601f0160208091040260200160405190810160405280929190818152602001828054610d2090612f5b565b8015610d6b5780601f10610d4257610100808354040283529160200191610d6b565b820191905f5260205f20905b815481529060010190602001808311610d4e57829003601f168201915b50505050508152602001600182018054610d8490612f5b565b80601f0160208091040260200160405190810160405280929190818152602001828054610db090612f5b565b8015610dfb5780601f10610dd257610100808354040283529160200191610dfb565b820191905f5260205f20905b815481529060010190602001808311610dde57829003601f168201915b5050509183525050600282015460ff16151560208083019190915260038301546040808401919091526004909301546060928301528351908401519284015193909101519098919750919550909350915050565b5f80546001600160a01b03163314610e795760405162461bcd60e51b81526004016107b290612ef3565b506001600160a01b03165f9081526007602052604090206003015490565b5f805481908190819081906060906001600160a01b03163314610ecc5760405162461bcd60e51b81526004016107b290612ef3565b6001600160a01b0388165f908152600960205260409020548710610f245760405162461bcd60e51b815260206004820152600f60248201526e125b9d985b1a59081b1bd85b881251608a1b60448201526064016107b2565b6001600160a01b0388165f908152600960205260408120805489908110610f4d57610f4d612f47565b5f9182526020918290206040805160e0810182526006939093029091018054835260018101546001600160a01b03811694840194909452600160a01b90930460ff161515908201526002820154606082015260038201546080820152600482015460a082015260058201805491929160c084019190610fcb90612f5b565b80601f0160208091040260200160405190810160405280929190818152602001828054610ff790612f5b565b80156110425780601f1061101957610100808354040283529160200191611042565b820191905f5260205f20905b81548152906001019060200180831161102557829003601f168201915b505050919092525050815160408301516060840151608085015160a086015160c090960151939f929e50909c509a50929850965090945050505050565b600554335f908152600760205260408120600301549091118015906110c15750600654335f908152600760205260409020600401546110be9042612f34565b11155b905090565b5f546001600160a01b031633146110ef5760405162461bcd60e51b81526004016107b290612ef3565b6001600160a01b0381166111455760405162461bcd60e51b815260206004820152601a60248201527f496e76616c696420656e7465727072697365206164647265737300000000000060448201526064016107b2565b6001600160a01b0381165f9081526007602052604090206002015460ff1661117f5760405162461bcd60e51b81526004016107b290612fbc565b6001600160a01b0381165f908152600960205260409020546111e35760405162461bcd60e51b815260206004820152601e60248201527f456e746572707269736520686173206e6f206c6f616e207265636f726473000060448201526064016107b2565b5f805b6001600160a01b0383165f908152600960205260409020548110156112a7576040805180820182526008815267185c1c1c9bdd995960c21b6020918201526001600160a01b0385165f90815260099091522080547f2b29265fc125740ae6bbc5035ae7af720b6932f4a3e44ba5ac02955c21ca9a0591908390811061126d5761126d612f47565b905f5260205f2090600602016005016040516112899190612ff3565b60405180910390200361129f57600191506112a7565b6001016111e6565b50806112f55760405162461bcd60e51b815260206004820181905260248201527f456e746572707269736520686173206e6f20617070726f766564206c6f616e7360448201526064016107b2565b670de0b6b3a76400004781111561134e5760405162461bcd60e51b815260206004820152601d60248201527f496e73756666696369656e7420636f6e74726163742062616c616e636500000060448201526064016107b2565b5f836001600160a01b0316826040515f6040518083038185875af1925050503d805f8114611397576040519150601f19603f3d011682016040523d82523d5f602084013e61139c565b606091505b50509050806113df5760405162461bcd60e51b815260206004820152600f60248201526e151c985b9cd9995c8819985a5b1959608a1b60448201526064016107b2565b6040518281526001600160a01b0385169033907f4ed2986a2cde8f90dd7d10ce44efb8d683b5e58ff9a6ffdc2d83dbbacee764379060200160405180910390a350505050565b5f546001600160a01b0316331461144e5760405162461bcd60e51b81526004016107b290612ef3565b5f34116114ac5760405162461bcd60e51b815260206004820152602660248201527f5472616e7366657220616d6f756e74206d75737420626520677265617465722060448201526507468616e20360d41b60648201526084016107b2565b60405134815233907ff3ce8e8d439080ce9af8787baf7ab58c4fe1f6497da71f370c32a1a0a23146679060200160405180910390a2565b335f9081526007602052604081206002015460ff166115145760405162461bcd60e51b81526004016107b290612fbc565b81156115df57600554335f90815260076020526040902060030154101561157d5760405162461bcd60e51b815260206004820152601960248201527f496e73756666696369656e7420677265656e20706f696e74730000000000000060448201526064016107b2565b600654335f9081526007602052604090206004015461159c9042612f34565b11156115df5760405162461bcd60e51b815260206004820152601260248201527111dc99595b8819185d1848195e1c1a5c995960721b60448201526064016107b2565b600a80545f91826115ef83613064565b9190505590505f8361160357600154611607565b6002545b6040805160e0810182528481523360208083018281528915158486019081526060850187815260038054608088019081524260a089019081528951808b018b526008815267185c1c1c9bdd995960c21b8189015260c08a019081525f98895260098852998820805460018181018355918a529790982089516006909802019687559451968601805494511515600160a01b026001600160a81b03199095166001600160a01b0398909816979097179390931790955551600284015551928201929092559051600482015591519293509182919060058201906116e990826130dc565b50505084156116fe576116fe33600554612a92565b60408051848152861515602082015233917f0beabebabb0332e2e4cb23e351e011d545d16a9df4b4ec6fc28cdcf8211231ee910160405180910390a2600354604080518581526020810192909252810183905233907f3a2fb17990ba9fc92930b56cf93fe97981f8dfdf0f3ff6c90652866495a3b45c9060600160405180910390a250909392505050565b5f80546001600160a01b031633146117b35760405162461bcd60e51b81526004016107b290612ef3565b506001600160a01b03165f9081526009602052604090205490565b5f80546001600160a01b031633146117f85760405162461bcd60e51b81526004016107b290612ef3565b506001600160a01b03165f9081526008602052604090205490565b60076020525f908152604090208054819061182d90612f5b565b80601f016020809104026020016040519081016040528092919081815260200182805461185990612f5b565b80156118a45780601f1061187b576101008083540402835291602001916118a4565b820191905f5260205f20905b81548152906001019060200180831161188757829003601f168201915b5050505050908060010180546118b990612f5b565b80601f01602080910402602001604051908101604052809291908181526020018280546118e590612f5b565b80156119305780601f1061190757610100808354040283529160200191611930565b820191905f5260205f20905b81548152906001019060200180831161191357829003601f168201915b5050505060028301546003840154600490940154929360ff9091169290915085565b5f546001600160a01b0316331461197b5760405162461bcd60e51b81526004016107b290612ef3565b6001600160a01b0382165f9081526008602052604090205481106119b15760405162461bcd60e51b81526004016107b290612f93565b6001600160a01b0382165f9081526008602052604090208054829081106119da576119da612f47565b5f91825260209091206004600690920201015460ff1615611a355760405162461bcd60e51b815260206004820152601560248201527411185d1848185b1c9958591e481d995c9a599a5959605a1b60448201526064016107b2565b6001600160a01b0382165f908152600860205260408120805483908110611a5e57611a5e612f47565b5f91825260208083206004600690930201918201805460ff191660011790556001600160a01b0386168352600890526040822054909250831015611bc1578154611aea5760405162461bcd60e51b815260206004820152601f60248201527f426173656c696e65206d7573742062652067726561746572207468616e20300060448201526064016107b2565b815460018301541115611b4a5760405162461bcd60e51b815260206004820152602260248201527f41637475616c20646174612063616e6e6f742065786365656420626173656c696044820152616e6560f01b60648201526084016107b2565b600182015482545f91611b5c91612f34565b83549091505f90611b6e836064613197565b611b7891906131ae565b90506004548110611bbe576001600160a01b0386165f908152600760205260408120600301805460649550859290611bb19084906131cd565b9091555050600584018390555b50505b60408051848152602081018390526001600160a01b038616917fcb921eb0f3b1a2b92b48e57ac67dded7bc675f5146500814358038ef7dbbe60091015b60405180910390a250505050565b335f9081526008602052604081205481906060908290819081908710611c445760405162461bcd60e51b81526004016107b290612f93565b335f908152600860205260408120805489908110611c6457611c64612f47565b905f5260205f2090600602016040518060c00160405290815f820154815260200160018201548152602001600282018054611c9e90612f5b565b80601f0160208091040260200160405190810160405280929190818152602001828054611cca90612f5b565b8015611d155780601f10611cec57610100808354040283529160200191611d15565b820191905f5260205f20905b815481529060010190602001808311611cf857829003601f168201915b50505091835250506003820154602080830191909152600483015460ff1615156040808401919091526005909301546060928301528351908401519284015191840151608085015160a090950151919d939c50919a5090985091965090945092505050565b335f9081526007602052604090206002015460ff16611dab5760405162461bcd60e51b81526004016107b290612fbc565b5f8411611dfa5760405162461bcd60e51b815260206004820152601f60248201527f426173656c696e65206d7573742062652067726561746572207468616e20300060448201526064016107b2565b83831115611e655760405162461bcd60e51b815260206004820152603260248201527f41637475616c2064617461206d757374206265206c657373207468616e206f7260448201527120657175616c20746f20626173656c696e6560701b60648201526084016107b2565b80611eb25760405162461bcd60e51b815260206004820152601960248201527f4461746120747970652063616e6e6f7420626520656d7074790000000000000060448201526064016107b2565b5f6040518060c0016040528086815260200185815260200184848080601f0160208091040260200160405190810160405280939291908181526020018383808284375f92018290525093855250504260208085019190915260408085018490526060909401839052338352600881528383208054600181810183559185529382902086516006909502019384559085015190830155509082015191925082916002820190611f6090826130dc565b506060820151600382015560808201516004808301805460ff19169215159290921790915560a090920151600590910155335f908152600760209081526040808320429401939093556008905290812054611fbd90600190612f34565b60405181815290915033907f36295c547b1f7c8010a7090a1a19b9e99e6ac4c25b46c4507cc23682da4335c89060200160405180910390a2505050505050565b8261204a5760405162461bcd60e51b815260206004820152601f60248201527f456e7465727072697365206e616d652063616e6e6f7420626520656d7074790060448201526064016107b2565b806120a75760405162461bcd60e51b815260206004820152602760248201527f536f6369616c2063726564697420636f646520686173682063616e6e6f7420626044820152666520656d70747960c81b60648201526084016107b2565b335f9081526007602052604090206002015460ff16156121095760405162461bcd60e51b815260206004820152601d60248201527f456e746572707269736520616c7265616479207265676973746572656400000060448201526064016107b2565b6040518060a0016040528085858080601f0160208091040260200160405190810160405280939291908181526020018383808284375f92019190915250505090825250604080516020601f8601819004810282018101909252848152918101919085908590819084018382808284375f9201829052509385525050506020808301829052604080840183905260609093018290523382526007905220815181906121b390826130dc565b50602082015160018201906121c890826130dc565b5060408281015160028301805460ff191691151591909117905560608301516003830155608090920151600490910155600b80546001810182555f919091527f0175b7a638427703f0dbe7bb9bbf987a2551717b34e79f33b5b1008d1fa01db9018054336001600160a01b0319909116811790915590517f6b3fa085b430accc25edd4978c194fc38b230b9c93c2dab93dcbf584979fdf5890611bfe90879087906131e0565b5f546001600160a01b031633146122975760405162461bcd60e51b81526004016107b290612ef3565b5f821180156122a557505f81115b6122f15760405162461bcd60e51b815260206004820152601c60248201527f5261746573206d7573742062652067726561746572207468616e20300000000060448201526064016107b2565b60018290556002819055604080516060808252600990820152684c6f616e526174657360b81b60808201526020810184905233918101919091527f246ac7a627b7629199c0024b8d5738dd54b80cf9f579694719cb60f6886acbc99060a0015b60405180910390a15050565b5f546001600160a01b031633146123865760405162461bcd60e51b81526004016107b290612ef3565b6001600160a01b0381165f90815260076020526040812080546123a890612f5b565b9050116123f75760405162461bcd60e51b815260206004820152601960248201527f456e7465727072697365206e6f7420726567697374657265640000000000000060448201526064016107b2565b6001600160a01b0381165f9081526007602052604090206002015460ff16156124625760405162461bcd60e51b815260206004820152601b60248201527f456e746572707269736520616c7265616479207665726966696564000000000060448201526064016107b2565b6001600160a01b0381165f81815260076020526040808220600201805460ff19166001179055517f9cf9908caff0d89d63ba81eaaaa09d565c913e019623e1304ff1c0630f3d0aa29190a250565b5f546001600160a01b031633146124d95760405162461bcd60e51b81526004016107b290612ef3565b5f82116125335760405162461bcd60e51b815260206004820152602260248201527f4c6f616e20616d6f756e74206d7573742062652067726561746572207468616e604482015261020360f41b60648201526084016107b2565b5f811161258e5760405162461bcd60e51b815260206004820152602360248201527f56616c696420706572696f64206d75737420626520677265617465722074686160448201526206e20360ec1b60648201526084016107b2565b60038290556006819055604080516060808252600e908201526d4c6f616e506172616d657465727360901b60808201526020810184905233918101919091527f246ac7a627b7629199c0024b8d5738dd54b80cf9f579694719cb60f6886acbc99060a001612351565b6009602052815f5260405f208181548110612610575f80fd5b5f9182526020909120600690910201805460018201546002830154600384015460048501546005860180549598506001600160a01b0385169750600160a01b90940460ff16959294919390929161266690612f5b565b80601f016020809104026020016040519081016040528092919081815260200182805461269290612f5b565b80156126dd5780601f106126b4576101008083540402835291602001916126dd565b820191905f5260205f20905b8154815290600101906020018083116126c057829003601f168201915b5050505050905087565b600b81815481106126f6575f80fd5b5f918252602090912001546001600160a01b0316905081565b5f546060906001600160a01b0316331461273b5760405162461bcd60e51b81526004016107b290612ef3565b600b80548060200260200160405190810160405280929190818152602001828054801561278f57602002820191905f5260205f20905b81546001600160a01b03168152600190910190602001808311612771575b5050505050905090565b5f8054606091829181906001600160a01b031633146127ca5760405162461bcd60e51b81526004016107b290612ef3565b6001600160a01b0385165f90815260076020526040808220815160a081019092528054829082906127fa90612f5b565b80601f016020809104026020016040519081016040528092919081815260200182805461282690612f5b565b80156128715780601f1061284857610100808354040283529160200191612871565b820191905f5260205f20905b81548152906001019060200180831161285457829003601f168201915b5050505050815260200160018201805461288a90612f5b565b80601f01602080910402602001604051908101604052809291908181526020018280546128b690612f5b565b80156129015780601f106128d857610100808354040283529160200191612901565b820191905f5260205f20905b8154815290600101906020018083116128e457829003601f168201915b5050509183525050600282015460ff1615156020808301919091526003830154604080840191909152600490930154606092830152835190840151928401519390910151909991985091965090945092505050565b5f546001600160a01b0316331461297f5760405162461bcd60e51b81526004016107b290612ef3565b60648211156129d05760405162461bcd60e51b815260206004820152601c60248201527f5468726573686f6c642063616e6e6f742065786365656420313030250000000060448201526064016107b2565b5f8111612a2d5760405162461bcd60e51b815260206004820152602560248201527f4d696e696d756d20706f696e7473206d75737420626520677265617465722074604482015264068616e20360dc1b60648201526084016107b2565b60048290556005819055604080516060808252600a9082015269506f696e7452756c657360b01b60808201526020810184905233918101919091527f246ac7a627b7629199c0024b8d5738dd54b80cf9f579694719cb60f6886acbc99060a001612351565b6001600160a01b0382165f90815260076020526040902060030154811115612af25760405162461bcd60e51b8152602060048201526013602482015272496e73756666696369656e7420706f696e747360681b60448201526064016107b2565b6001600160a01b0382165f9081526007602052604081206003018054839290612b1c908490612f34565b92505081905550816001600160a01b03167ff9d84dc8dbc1ec63030d63fe51eb9e84f59905783078b2f3d84f3fcee1ae778f82604051612b8c9181526040602082018190526016908201527523b932b2b7103637b0b71030b8383634b1b0ba34b7b760511b606082015260800190565b60405180910390a25050565b6001600160a01b0381168114612bac575f5ffd5b50565b5f60208284031215612bbf575f5ffd5b8135612bca81612b98565b9392505050565b5f60208284031215612be1575f5ffd5b5035919050565b5f81518084528060208401602086015e5f602082860101526020601f19601f83011685010191505092915050565b868152851515602082015284604082015283606082015282608082015260c060a08201525f612c4860c0830184612be8565b98975050505050505050565b5f5f60408385031215612c65575f5ffd5b8235612c7081612b98565b946020939093013593505050565b86815285602082015260c060408201525f612c9c60c0830187612be8565b606083019590955250911515608083015260a0909101529392505050565b608081525f612ccc6080830187612be8565b8281036020840152612cde8187612be8565b941515604084015250506060015292915050565b5f60208284031215612d02575f5ffd5b81358015158114612bca575f5ffd5b60a081525f612d2360a0830188612be8565b8281036020840152612d358188612be8565b95151560408401525050606081019290925260809091015292915050565b5f5f83601f840112612d63575f5ffd5b50813567ffffffffffffffff811115612d7a575f5ffd5b602083019150836020828501011115612d91575f5ffd5b9250929050565b5f5f5f5f60608587031215612dab575f5ffd5b8435935060208501359250604085013567ffffffffffffffff811115612dcf575f5ffd5b612ddb87828801612d53565b95989497509550505050565b5f5f5f5f60408587031215612dfa575f5ffd5b843567ffffffffffffffff811115612e10575f5ffd5b612e1c87828801612d53565b909550935050602085013567ffffffffffffffff811115612dcf575f5ffd5b5f5f60408385031215612e4c575f5ffd5b50508035926020909101359150565b87815260018060a01b038716602082015285151560408201528460608201528360808201528260a082015260e060c08201525f612e9b60e0830184612be8565b9998505050505050505050565b602080825282518282018190525f918401906040840190835b81811015612ee85783516001600160a01b0316835260209384019390920191600101612ec1565b509095945050505050565b60208082526013908201527221b0b63632b91034b9903737ba1030b236b4b760691b604082015260600190565b634e487b7160e01b5f52601160045260245ffd5b8181038181111561080d5761080d612f20565b634e487b7160e01b5f52603260045260245ffd5b600181811c90821680612f6f57607f821691505b602082108103612f8d57634e487b7160e01b5f52602260045260245ffd5b50919050565b6020808252600f908201526e125b9d985b1a590819185d18481251608a1b604082015260600190565b60208082526017908201527f456e7465727072697365206e6f74207665726966696564000000000000000000604082015260600190565b5f5f835461300081612f5b565b600182168015613017576001811461302c57613059565b60ff1983168652811515820286019350613059565b865f5260205f205f5b8381101561305157815488820152600190910190602001613035565b505081860193505b509195945050505050565b5f6001820161307557613075612f20565b5060010190565b634e487b7160e01b5f52604160045260245ffd5b601f8211156130d757805f5260205f20601f840160051c810160208510156130b55750805b601f840160051c820191505b818110156130d4575f81556001016130c1565b50505b505050565b815167ffffffffffffffff8111156130f6576130f661307c565b61310a816131048454612f5b565b84613090565b6020601f82116001811461313c575f83156131255750848201515b5f19600385901b1c1916600184901b1784556130d4565b5f84815260208120601f198516915b8281101561316b578785015182556020948501946001909201910161314b565b508482101561318857868401515f19600387901b60f8161c191681555b50505050600190811b01905550565b808202811582820484141761080d5761080d612f20565b5f826131c857634e487b7160e01b5f52601260045260245ffd5b500490565b8082018082111561080d5761080d612f20565b60208152816020820152818360408301375f818301604090810191909152601f909201601f1916010191905056fea264697066735822122061d4cae5d811f6cf90ade1447d510a63471f58d229d130bd09895af8325ff43f64736f6c634300081c0033",
  "linkReferences": {},
  "deployedLinkReferences": {},
  "immutableReferences": {},
  "inputSourceName": "project/contracts/GreenLoanContract.sol",
  "buildInfoId": "solc-0_8_28-4bea32125cedde3f0caf9a72dea4435c01309131"
}